{
  "_format": "hh-sol-artifact-1",
  "contractName": "NFTContract",
  "sourceName": "contracts/NFTContract.sol",
  "abi": [
    {
      "inputs": [],
      "stateMutability": "nonpayable",
      "type": "constructor"
    },
    {
      "inputs": [],
      "name": "AccessControlBadConfirmation",
      "type": "error"
    },
    {
      "inputs": [
        {
          "internalType": "address",
          "name": "account",
          "type": "address"
        },
        {
          "internalType": "bytes32",
          "name": "neededRole",
          "type": "bytes32"
        }
      ],
      "name": "AccessControlUnauthorizedAccount",
      "type": "error"
    },
    {
      "inputs": [
        {
          "internalType": "address",
          "name": "target",
          "type": "address"
        }
      ],
      "name": "AddressEmptyCode",
      "type": "error"
    },
    {
      "inputs": [],
      "name": "ECDSAInvalidSignature",
      "type": "error"
    },
    {
      "inputs": [
        {
          "internalType": "uint256",
          "name": "length",
          "type": "uint256"
        }
      ],
      "name": "ECDSAInvalidSignatureLength",
      "type": "error"
    },
    {
      "inputs": [
        {
          "internalType": "bytes32",
          "name": "s",
          "type": "bytes32"
        }
      ],
      "name": "ECDSAInvalidSignatureS",
      "type": "error"
    },
    {
      "inputs": [
        {
          "internalType": "address",
          "name": "implementation",
          "type": "address"
        }
      ],
      "name": "ERC1967InvalidImplementation",
      "type": "error"
    },
    {
      "inputs": [],
      "name": "ERC1967NonPayable",
      "type": "error"
    },
    {
      "inputs": [
        {
          "internalType": "uint256",
          "name": "numerator",
          "type": "uint256"
        },
        {
          "internalType": "uint256",
          "name": "denominator",
          "type": "uint256"
        }
      ],
      "name": "ERC2981InvalidDefaultRoyalty",
      "type": "error"
    },
    {
      "inputs": [
        {
          "internalType": "address",
          "name": "receiver",
          "type": "address"
        }
      ],
      "name": "ERC2981InvalidDefaultRoyaltyReceiver",
      "type": "error"
    },
    {
      "inputs": [
        {
          "internalType": "uint256",
          "name": "tokenId",
          "type": "uint256"
        },
        {
          "internalType": "uint256",
          "name": "numerator",
          "type": "uint256"
        },
        {
          "internalType": "uint256",
          "name": "denominator",
          "type": "uint256"
        }
      ],
      "name": "ERC2981InvalidTokenRoyalty",
      "type": "error"
    },
    {
      "inputs": [
        {
          "internalType": "uint256",
          "name": "tokenId",
          "type": "uint256"
        },
        {
          "internalType": "address",
          "name": "receiver",
          "type": "address"
        }
      ],
      "name": "ERC2981InvalidTokenRoyaltyReceiver",
      "type": "error"
    },
    {
      "inputs": [
        {
          "internalType": "address",
          "name": "sender",
          "type": "address"
        },
        {
          "internalType": "uint256",
          "name": "tokenId",
          "type": "uint256"
        },
        {
          "internalType": "address",
          "name": "owner",
          "type": "address"
        }
      ],
      "name": "ERC721IncorrectOwner",
      "type": "error"
    },
    {
      "inputs": [
        {
          "internalType": "address",
          "name": "operator",
          "type": "address"
        },
        {
          "internalType": "uint256",
          "name": "tokenId",
          "type": "uint256"
        }
      ],
      "name": "ERC721InsufficientApproval",
      "type": "error"
    },
    {
      "inputs": [
        {
          "internalType": "address",
          "name": "approver",
          "type": "address"
        }
      ],
      "name": "ERC721InvalidApprover",
      "type": "error"
    },
    {
      "inputs": [
        {
          "internalType": "address",
          "name": "operator",
          "type": "address"
        }
      ],
      "name": "ERC721InvalidOperator",
      "type": "error"
    },
    {
      "inputs": [
        {
          "internalType": "address",
          "name": "owner",
          "type": "address"
        }
      ],
      "name": "ERC721InvalidOwner",
      "type": "error"
    },
    {
      "inputs": [
        {
          "internalType": "address",
          "name": "receiver",
          "type": "address"
        }
      ],
      "name": "ERC721InvalidReceiver",
      "type": "error"
    },
    {
      "inputs": [
        {
          "internalType": "address",
          "name": "sender",
          "type": "address"
        }
      ],
      "name": "ERC721InvalidSender",
      "type": "error"
    },
    {
      "inputs": [
        {
          "internalType": "uint256",
          "name": "tokenId",
          "type": "uint256"
        }
      ],
      "name": "ERC721NonexistentToken",
      "type": "error"
    },
    {
      "inputs": [],
      "name": "EnforcedPause",
      "type": "error"
    },
    {
      "inputs": [],
      "name": "ExpectedPause",
      "type": "error"
    },
    {
      "inputs": [],
      "name": "FailedCall",
      "type": "error"
    },
    {
      "inputs": [],
      "name": "InsufficientPayment",
      "type": "error"
    },
    {
      "inputs": [],
      "name": "InvalidInitialization",
      "type": "error"
    },
    {
      "inputs": [],
      "name": "InvalidParameters",
      "type": "error"
    },
    {
      "inputs": [],
      "name": "InvalidSignature",
      "type": "error"
    },
    {
      "inputs": [],
      "name": "MaxSupplyExceeded",
      "type": "error"
    },
    {
      "inputs": [],
      "name": "NonceAlreadyUsed",
      "type": "error"
    },
    {
      "inputs": [],
      "name": "NotInitializing",
      "type": "error"
    },
    {
      "inputs": [],
      "name": "ReentrancyGuardReentrantCall",
      "type": "error"
    },
    {
      "inputs": [],
      "name": "TokenAlreadyMinted",
      "type": "error"
    },
    {
      "inputs": [],
      "name": "UUPSUnauthorizedCallContext",
      "type": "error"
    },
    {
      "inputs": [
        {
          "internalType": "bytes32",
          "name": "slot",
          "type": "bytes32"
        }
      ],
      "name": "UUPSUnsupportedProxiableUUID",
      "type": "error"
    },
    {
      "inputs": [],
      "name": "UnauthorizedBuyer",
      "type": "error"
    },
    {
      "inputs": [],
      "name": "UnauthorizedUpgrade",
      "type": "error"
    },
    {
      "inputs": [],
      "name": "VoucherExpired",
      "type": "error"
    },
    {
      "anonymous": false,
      "inputs": [
        {
          "indexed": true,
          "internalType": "address",
          "name": "owner",
          "type": "address"
        },
        {
          "indexed": true,
          "internalType": "address",
          "name": "approved",
          "type": "address"
        },
        {
          "indexed": true,
          "internalType": "uint256",
          "name": "tokenId",
          "type": "uint256"
        }
      ],
      "name": "Approval",
      "type": "event"
    },
    {
      "anonymous": false,
      "inputs": [
        {
          "indexed": true,
          "internalType": "address",
          "name": "owner",
          "type": "address"
        },
        {
          "indexed": true,
          "internalType": "address",
          "name": "operator",
          "type": "address"
        },
        {
          "indexed": false,
          "internalType": "bool",
          "name": "approved",
          "type": "bool"
        }
      ],
      "name": "ApprovalForAll",
      "type": "event"
    },
    {
      "anonymous": false,
      "inputs": [
        {
          "indexed": false,
          "internalType": "string",
          "name": "newBaseURI",
          "type": "string"
        }
      ],
      "name": "BaseURIUpdated",
      "type": "event"
    },
    {
      "anonymous": false,
      "inputs": [],
      "name": "EIP712DomainChanged",
      "type": "event"
    },
    {
      "anonymous": false,
      "inputs": [
        {
          "indexed": false,
          "internalType": "uint64",
          "name": "version",
          "type": "uint64"
        }
      ],
      "name": "Initialized",
      "type": "event"
    },
    {
      "anonymous": false,
      "inputs": [
        {
          "indexed": false,
          "internalType": "uint256",
          "name": "newMaxSupply",
          "type": "uint256"
        }
      ],
      "name": "MaxSupplyUpdated",
      "type": "event"
    },
    {
      "anonymous": false,
      "inputs": [
        {
          "indexed": true,
          "internalType": "address",
          "name": "signer",
          "type": "address"
        },
        {
          "indexed": false,
          "internalType": "uint256",
          "name": "nonce",
          "type": "uint256"
        }
      ],
      "name": "NonceInvalidated",
      "type": "event"
    },
    {
      "anonymous": false,
      "inputs": [
        {
          "indexed": false,
          "internalType": "address",
          "name": "account",
          "type": "address"
        }
      ],
      "name": "Paused",
      "type": "event"
    },
    {
      "anonymous": false,
      "inputs": [
        {
          "indexed": true,
          "internalType": "bytes32",
          "name": "role",
          "type": "bytes32"
        },
        {
          "indexed": true,
          "internalType": "bytes32",
          "name": "previousAdminRole",
          "type": "bytes32"
        },
        {
          "indexed": true,
          "internalType": "bytes32",
          "name": "newAdminRole",
          "type": "bytes32"
        }
      ],
      "name": "RoleAdminChanged",
      "type": "event"
    },
    {
      "anonymous": false,
      "inputs": [
        {
          "indexed": true,
          "internalType": "bytes32",
          "name": "role",
          "type": "bytes32"
        },
        {
          "indexed": true,
          "internalType": "address",
          "name": "account",
          "type": "address"
        },
        {
          "indexed": true,
          "internalType": "address",
          "name": "sender",
          "type": "address"
        }
      ],
      "name": "RoleGranted",
      "type": "event"
    },
    {
      "anonymous": false,
      "inputs": [
        {
          "indexed": true,
          "internalType": "bytes32",
          "name": "role",
          "type": "bytes32"
        },
        {
          "indexed": true,
          "internalType": "address",
          "name": "account",
          "type": "address"
        },
        {
          "indexed": true,
          "internalType": "address",
          "name": "sender",
          "type": "address"
        }
      ],
      "name": "RoleRevoked",
      "type": "event"
    },
    {
      "anonymous": false,
      "inputs": [
        {
          "indexed": true,
          "internalType": "address",
          "name": "receiver",
          "type": "address"
        },
        {
          "indexed": false,
          "internalType": "uint96",
          "name": "feeNumerator",
          "type": "uint96"
        }
      ],
      "name": "RoyaltyInfoUpdated",
      "type": "event"
    },
    {
      "anonymous": false,
      "inputs": [
        {
          "indexed": true,
          "internalType": "address",
          "name": "redeemer",
          "type": "address"
        },
        {
          "indexed": true,
          "internalType": "uint256",
          "name": "tokenId",
          "type": "uint256"
        },
        {
          "indexed": false,
          "internalType": "uint256",
          "name": "price",
          "type": "uint256"
        },
        {
          "indexed": false,
          "internalType": "uint256",
          "name": "nonce",
          "type": "uint256"
        }
      ],
      "name": "TokenLazyMinted",
      "type": "event"
    },
    {
      "anonymous": false,
      "inputs": [
        {
          "indexed": true,
          "internalType": "address",
          "name": "to",
          "type": "address"
        },
        {
          "indexed": true,
          "internalType": "uint256",
          "name": "tokenId",
          "type": "uint256"
        },
        {
          "indexed": false,
          "internalType": "string",
          "name": "tokenURI",
          "type": "string"
        }
      ],
      "name": "TokenMinted",
      "type": "event"
    },
    {
      "anonymous": false,
      "inputs": [
        {
          "indexed": true,
          "internalType": "address",
          "name": "from",
          "type": "address"
        },
        {
          "indexed": true,
          "internalType": "address",
          "name": "to",
          "type": "address"
        },
        {
          "indexed": true,
          "internalType": "uint256",
          "name": "tokenId",
          "type": "uint256"
        }
      ],
      "name": "Transfer",
      "type": "event"
    },
    {
      "anonymous": false,
      "inputs": [
        {
          "indexed": false,
          "internalType": "address",
          "name": "account",
          "type": "address"
        }
      ],
      "name": "Unpaused",
      "type": "event"
    },
    {
      "anonymous": false,
      "inputs": [
        {
          "indexed": true,
          "internalType": "address",
          "name": "implementation",
          "type": "address"
        }
      ],
      "name": "Upgraded",
      "type": "event"
    },
    {
      "inputs": [],
      "name": "ADMIN_ROLE",
      "outputs": [
        {
          "internalType": "bytes32",
          "name": "",
          "type": "bytes32"
        }
      ],
      "stateMutability": "view",
      "type": "function"
    },
    {
      "inputs": [],
      "name": "DEFAULT_ADMIN_ROLE",
      "outputs": [
        {
          "internalType": "bytes32",
          "name": "",
          "type": "bytes32"
        }
      ],
      "stateMutability": "view",
      "type": "function"
    },
    {
      "inputs": [],
      "name": "MINTER_ROLE",
      "outputs": [
        {
          "internalType": "bytes32",
          "name": "",
          "type": "bytes32"
        }
      ],
      "stateMutability": "view",
      "type": "function"
    },
    {
      "inputs": [],
      "name": "SIGNER_ROLE",
      "outputs": [
        {
          "internalType": "bytes32",
          "name": "",
          "type": "bytes32"
        }
      ],
      "stateMutability": "view",
      "type": "function"
    },
    {
      "inputs": [],
      "name": "UPGRADE_INTERFACE_VERSION",
      "outputs": [
        {
          "internalType": "string",
          "name": "",
          "type": "string"
        }
      ],
      "stateMutability": "view",
      "type": "function"
    },
    {
      "inputs": [
        {
          "internalType": "address",
          "name": "to",
          "type": "address"
        },
        {
          "internalType": "uint256",
          "name": "tokenId",
          "type": "uint256"
        }
      ],
      "name": "approve",
      "outputs": [],
      "stateMutability": "nonpayable",
      "type": "function"
    },
    {
      "inputs": [
        {
          "internalType": "address",
          "name": "owner",
          "type": "address"
        }
      ],
      "name": "balanceOf",
      "outputs": [
        {
          "internalType": "uint256",
          "name": "",
          "type": "uint256"
        }
      ],
      "stateMutability": "view",
      "type": "function"
    },
    {
      "inputs": [
        {
          "internalType": "address",
          "name": "to",
          "type": "address"
        },
        {
          "internalType": "uint256",
          "name": "quantity",
          "type": "uint256"
        }
      ],
      "name": "batchMint",
      "outputs": [],
      "stateMutability": "nonpayable",
      "type": "function"
    },
    {
      "inputs": [],
      "name": "eip712Domain",
      "outputs": [
        {
          "internalType": "bytes1",
          "name": "fields",
          "type": "bytes1"
        },
        {
          "internalType": "string",
          "name": "name",
          "type": "string"
        },
        {
          "internalType": "string",
          "name": "version",
          "type": "string"
        },
        {
          "internalType": "uint256",
          "name": "chainId",
          "type": "uint256"
        },
        {
          "internalType": "address",
          "name": "verifyingContract",
          "type": "address"
        },
        {
          "internalType": "bytes32",
          "name": "salt",
          "type": "bytes32"
        },
        {
          "internalType": "uint256[]",
          "name": "extensions",
          "type": "uint256[]"
        }
      ],
      "stateMutability": "view",
      "type": "function"
    },
    {
      "inputs": [
        {
          "internalType": "uint256",
          "name": "tokenId",
          "type": "uint256"
        }
      ],
      "name": "getApproved",
      "outputs": [
        {
          "internalType": "address",
          "name": "",
          "type": "address"
        }
      ],
      "stateMutability": "view",
      "type": "function"
    },
    {
      "inputs": [],
      "name": "getDomainSeparator",
      "outputs": [
        {
          "internalType": "bytes32",
          "name": "",
          "type": "bytes32"
        }
      ],
      "stateMutability": "view",
      "type": "function"
    },
    {
      "inputs": [
        {
          "internalType": "bytes32",
          "name": "role",
          "type": "bytes32"
        }
      ],
      "name": "getRoleAdmin",
      "outputs": [
        {
          "internalType": "bytes32",
          "name": "",
          "type": "bytes32"
        }
      ],
      "stateMutability": "view",
      "type": "function"
    },
    {
      "inputs": [
        {
          "internalType": "bytes32",
          "name": "role",
          "type": "bytes32"
        },
        {
          "internalType": "address",
          "name": "account",
          "type": "address"
        }
      ],
      "name": "grantRole",
      "outputs": [],
      "stateMutability": "nonpayable",
      "type": "function"
    },
    {
      "inputs": [
        {
          "internalType": "bytes32",
          "name": "role",
          "type": "bytes32"
        },
        {
          "internalType": "address",
          "name": "account",
          "type": "address"
        }
      ],
      "name": "hasRole",
      "outputs": [
        {
          "internalType": "bool",
          "name": "",
          "type": "bool"
        }
      ],
      "stateMutability": "view",
      "type": "function"
    },
    {
      "inputs": [
        {
          "internalType": "string",
          "name": "name_",
          "type": "string"
        },
        {
          "internalType": "string",
          "name": "symbol_",
          "type": "string"
        },
        {
          "internalType": "string",
          "name": "baseURI_",
          "type": "string"
        },
        {
          "internalType": "uint256",
          "name": "maxSupply_",
          "type": "uint256"
        },
        {
          "internalType": "address",
          "name": "royaltyReceiver_",
          "type": "address"
        },
        {
          "internalType": "uint96",
          "name": "royaltyFeeNumerator_",
          "type": "uint96"
        }
      ],
      "name": "initialize",
      "outputs": [],
      "stateMutability": "nonpayable",
      "type": "function"
    },
    {
      "inputs": [
        {
          "internalType": "uint256",
          "name": "nonce",
          "type": "uint256"
        }
      ],
      "name": "invalidateNonce",
      "outputs": [],
      "stateMutability": "nonpayable",
      "type": "function"
    },
    {
      "inputs": [
        {
          "internalType": "address",
          "name": "owner",
          "type": "address"
        },
        {
          "internalType": "address",
          "name": "operator",
          "type": "address"
        }
      ],
      "name": "isApprovedForAll",
      "outputs": [
        {
          "internalType": "bool",
          "name": "",
          "type": "bool"
        }
      ],
      "stateMutability": "view",
      "type": "function"
    },
    {
      "inputs": [
        {
          "internalType": "address",
          "name": "signer",
          "type": "address"
        },
        {
          "internalType": "uint256",
          "name": "nonce",
          "type": "uint256"
        }
      ],
      "name": "isNonceUsed",
      "outputs": [
        {
          "internalType": "bool",
          "name": "",
          "type": "bool"
        }
      ],
      "stateMutability": "view",
      "type": "function"
    },
    {
      "inputs": [],
      "name": "maxSupply",
      "outputs": [
        {
          "internalType": "uint256",
          "name": "",
          "type": "uint256"
        }
      ],
      "stateMutability": "view",
      "type": "function"
    },
    {
      "inputs": [
        {
          "internalType": "address",
          "name": "to",
          "type": "address"
        }
      ],
      "name": "mint",
      "outputs": [
        {
          "internalType": "uint256",
          "name": "",
          "type": "uint256"
        }
      ],
      "stateMutability": "nonpayable",
      "type": "function"
    },
    {
      "inputs": [],
      "name": "name",
      "outputs": [
        {
          "internalType": "string",
          "name": "",
          "type": "string"
        }
      ],
      "stateMutability": "view",
      "type": "function"
    },
    {
      "inputs": [
        {
          "internalType": "uint256",
          "name": "tokenId",
          "type": "uint256"
        }
      ],
      "name": "ownerOf",
      "outputs": [
        {
          "internalType": "address",
          "name": "",
          "type": "address"
        }
      ],
      "stateMutability": "view",
      "type": "function"
    },
    {
      "inputs": [],
      "name": "pause",
      "outputs": [],
      "stateMutability": "nonpayable",
      "type": "function"
    },
    {
      "inputs": [],
      "name": "paused",
      "outputs": [
        {
          "internalType": "bool",
          "name": "",
          "type": "bool"
        }
      ],
      "stateMutability": "view",
      "type": "function"
    },
    {
      "inputs": [],
      "name": "proxiableUUID",
      "outputs": [
        {
          "internalType": "bytes32",
          "name": "",
          "type": "bytes32"
        }
      ],
      "stateMutability": "view",
      "type": "function"
    },
    {
      "inputs": [
        {
          "components": [
            {
              "internalType": "uint256",
              "name": "tokenId",
              "type": "uint256"
            },
            {
              "internalType": "uint256",
              "name": "minPrice",
              "type": "uint256"
            },
            {
              "internalType": "string",
              "name": "uri",
              "type": "string"
            },
            {
              "internalType": "address",
              "name": "buyer",
              "type": "address"
            },
            {
              "internalType": "uint256",
              "name": "nonce",
              "type": "uint256"
            },
            {
              "internalType": "uint256",
              "name": "expiry",
              "type": "uint256"
            },
            {
              "internalType": "bytes",
              "name": "signature",
              "type": "bytes"
            }
          ],
          "internalType": "struct NFTContract.NFTVoucher",
          "name": "voucher",
          "type": "tuple"
        }
      ],
      "name": "redeemVoucher",
      "outputs": [
        {
          "internalType": "uint256",
          "name": "",
          "type": "uint256"
        }
      ],
      "stateMutability": "payable",
      "type": "function"
    },
    {
      "inputs": [
        {
          "internalType": "bytes32",
          "name": "role",
          "type": "bytes32"
        },
        {
          "internalType": "address",
          "name": "callerConfirmation",
          "type": "address"
        }
      ],
      "name": "renounceRole",
      "outputs": [],
      "stateMutability": "nonpayable",
      "type": "function"
    },
    {
      "inputs": [
        {
          "internalType": "bytes32",
          "name": "role",
          "type": "bytes32"
        },
        {
          "internalType": "address",
          "name": "account",
          "type": "address"
        }
      ],
      "name": "revokeRole",
      "outputs": [],
      "stateMutability": "nonpayable",
      "type": "function"
    },
    {
      "inputs": [
        {
          "internalType": "uint256",
          "name": "tokenId",
          "type": "uint256"
        },
        {
          "internalType": "uint256",
          "name": "salePrice",
          "type": "uint256"
        }
      ],
      "name": "royaltyInfo",
      "outputs": [
        {
          "internalType": "address",
          "name": "receiver",
          "type": "address"
        },
        {
          "internalType": "uint256",
          "name": "amount",
          "type": "uint256"
        }
      ],
      "stateMutability": "view",
      "type": "function"
    },
    {
      "inputs": [
        {
          "internalType": "address",
          "name": "from",
          "type": "address"
        },
        {
          "internalType": "address",
          "name": "to",
          "type": "address"
        },
        {
          "internalType": "uint256",
          "name": "tokenId",
          "type": "uint256"
        }
      ],
      "name": "safeTransferFrom",
      "outputs": [],
      "stateMutability": "nonpayable",
      "type": "function"
    },
    {
      "inputs": [
        {
          "internalType": "address",
          "name": "from",
          "type": "address"
        },
        {
          "internalType": "address",
          "name": "to",
          "type": "address"
        },
        {
          "internalType": "uint256",
          "name": "tokenId",
          "type": "uint256"
        },
        {
          "internalType": "bytes",
          "name": "data",
          "type": "bytes"
        }
      ],
      "name": "safeTransferFrom",
      "outputs": [],
      "stateMutability": "nonpayable",
      "type": "function"
    },
    {
      "inputs": [
        {
          "internalType": "address",
          "name": "operator",
          "type": "address"
        },
        {
          "internalType": "bool",
          "name": "approved",
          "type": "bool"
        }
      ],
      "name": "setApprovalForAll",
      "outputs": [],
      "stateMutability": "nonpayable",
      "type": "function"
    },
    {
      "inputs": [
        {
          "internalType": "string",
          "name": "newBaseURI",
          "type": "string"
        }
      ],
      "name": "setBaseURI",
      "outputs": [],
      "stateMutability": "nonpayable",
      "type": "function"
    },
    {
      "inputs": [
        {
          "internalType": "address",
          "name": "receiver",
          "type": "address"
        },
        {
          "internalType": "uint96",
          "name": "feeNumerator",
          "type": "uint96"
        }
      ],
      "name": "setDefaultRoyalty",
      "outputs": [],
      "stateMutability": "nonpayable",
      "type": "function"
    },
    {
      "inputs": [
        {
          "internalType": "uint256",
          "name": "newMaxSupply",
          "type": "uint256"
        }
      ],
      "name": "setMaxSupply",
      "outputs": [],
      "stateMutability": "nonpayable",
      "type": "function"
    },
    {
      "inputs": [
        {
          "internalType": "uint256",
          "name": "tokenId",
          "type": "uint256"
        },
        {
          "internalType": "address",
          "name": "receiver",
          "type": "address"
        },
        {
          "internalType": "uint96",
          "name": "feeNumerator",
          "type": "uint96"
        }
      ],
      "name": "setTokenRoyalty",
      "outputs": [],
      "stateMutability": "nonpayable",
      "type": "function"
    },
    {
      "inputs": [
        {
          "internalType": "bytes4",
          "name": "interfaceId",
          "type": "bytes4"
        }
      ],
      "name": "supportsInterface",
      "outputs": [
        {
          "internalType": "bool",
          "name": "",
          "type": "bool"
        }
      ],
      "stateMutability": "view",
      "type": "function"
    },
    {
      "inputs": [],
      "name": "symbol",
      "outputs": [
        {
          "internalType": "string",
          "name": "",
          "type": "string"
        }
      ],
      "stateMutability": "view",
      "type": "function"
    },
    {
      "inputs": [
        {
          "internalType": "uint256",
          "name": "tokenId",
          "type": "uint256"
        }
      ],
      "name": "tokenURI",
      "outputs": [
        {
          "internalType": "string",
          "name": "",
          "type": "string"
        }
      ],
      "stateMutability": "view",
      "type": "function"
    },
    {
      "inputs": [],
      "name": "totalSupply",
      "outputs": [
        {
          "internalType": "uint256",
          "name": "",
          "type": "uint256"
        }
      ],
      "stateMutability": "view",
      "type": "function"
    },
    {
      "inputs": [
        {
          "internalType": "address",
          "name": "from",
          "type": "address"
        },
        {
          "internalType": "address",
          "name": "to",
          "type": "address"
        },
        {
          "internalType": "uint256",
          "name": "tokenId",
          "type": "uint256"
        }
      ],
      "name": "transferFrom",
      "outputs": [],
      "stateMutability": "nonpayable",
      "type": "function"
    },
    {
      "inputs": [],
      "name": "unpause",
      "outputs": [],
      "stateMutability": "nonpayable",
      "type": "function"
    },
    {
      "inputs": [
        {
          "internalType": "address",
          "name": "newImplementation",
          "type": "address"
        },
        {
          "internalType": "bytes",
          "name": "data",
          "type": "bytes"
        }
      ],
      "name": "upgradeToAndCall",
      "outputs": [],
      "stateMutability": "payable",
      "type": "function"
    },
    {
      "inputs": [
        {
          "components": [
            {
              "internalType": "uint256",
              "name": "tokenId",
              "type": "uint256"
            },
            {
              "internalType": "uint256",
              "name": "minPrice",
              "type": "uint256"
            },
            {
              "internalType": "string",
              "name": "uri",
              "type": "string"
            },
            {
              "internalType": "address",
              "name": "buyer",
              "type": "address"
            },
            {
              "internalType": "uint256",
              "name": "nonce",
              "type": "uint256"
            },
            {
              "internalType": "uint256",
              "name": "expiry",
              "type": "uint256"
            },
            {
              "internalType": "bytes",
              "name": "signature",
              "type": "bytes"
            }
          ],
          "internalType": "struct NFTContract.NFTVoucher",
          "name": "voucher",
          "type": "tuple"
        }
      ],
      "name": "verifyVoucher",
      "outputs": [
        {
          "internalType": "address",
          "name": "signer",
          "type": "address"
        },
        {
          "internalType": "bool",
          "name": "isValid",
          "type": "bool"
        }
      ],
      "stateMutability": "view",
      "type": "function"
    },
    {
      "inputs": [],
      "name": "withdraw",
      "outputs": [],
      "stateMutability": "nonpayable",
      "type": "function"
    }
  ],
  "bytecode": "0x60a0604052306080523480156200001557600080fd5b506200002062000026565b620000da565b7ff0c57e16840df040f15088dc2f81fe391c3923bec73e23a9662efc9c229c6a00805468010000000000000000900460ff1615620000775760405163f92ee8a960e01b815260040160405180910390fd5b80546001600160401b0390811614620000d75780546001600160401b0319166001600160401b0390811782556040519081527fc7f505b2f371ae2175ee4913f4499e1f2633a7b5936321eed1cdaeb6115181d29060200160405180910390a15b50565b6080516137536200010460003960008181611a3501528181611a5e0152611c7001526137536000f3fe6080604052600436106102025760003560e01c806301ffc9a71461020757806304634d8d1461023c57806306fdde031461025e578063081812fc14610280578063095ea7b3146102ad57806318160ddd146102cd57806323b872dd146102ec578063248a9ca31461030c5780632a55205a1461032c5780632f2ff15d1461035a57806336568abe1461037a5780633ccfd60b1461039a5780633f4ba83a146103af57806342842e0e146103c457806343508b05146103e45780634f1ef286146104045780634fbb58081461041757806352d1902d1461042a57806355f804b31461043f5780635944c7531461045f5780635c975abb1461047f578063608887a1146104945780636352211e146104b45780636a627842146104d45780636f8b44b0146104f457806370a082311461051457806375b238fc146105345780638456cb591461055657806384b0196e1461056b57806391d148541461059357806395d89b41146105b3578063a1ebf35d146105c8578063a217fddf146105ea578063a22cb465146105ff578063ad3cb1cc1461061f578063b70e36f014610650578063b88d4fde14610670578063c87b56dd14610690578063cab7e8eb146106b0578063d5391393146106f6578063d547741f14610718578063d5abeb0114610738578063e79588b61461074e578063e985e9c51461078d578063ed24911d146107ad575b600080fd5b34801561021357600080fd5b50610227610222366004612dc4565b6107c2565b60405190151581526020015b60405180910390f35b34801561024857600080fd5b5061025c610257366004612e0f565b6107d3565b005b34801561026a57600080fd5b50610273610850565b6040516102339190612e92565b34801561028c57600080fd5b506102a061029b366004612ea5565b6108f1565b6040516102339190612ebe565b3480156102b957600080fd5b5061025c6102c8366004612ed2565b610906565b3480156102d957600080fd5b506000545b604051908152602001610233565b3480156102f857600080fd5b5061025c610307366004612efc565b610915565b34801561031857600080fd5b506102de610327366004612ea5565b6109a9565b34801561033857600080fd5b5061034c610347366004612f38565b6109c9565b604051610233929190612f5a565b34801561036657600080fd5b5061025c610375366004612f73565b610a60565b34801561038657600080fd5b5061025c610395366004612f73565b610a7c565b3480156103a657600080fd5b5061025c610ab4565b3480156103bb57600080fd5b5061025c610b6d565b3480156103d057600080fd5b5061025c6103df366004612efc565b610b8d565b3480156103f057600080fd5b5061025c6103ff366004612ed2565b610ba8565b61025c610412366004613038565b610ca7565b6102de610425366004613085565b610cc2565b34801561043657600080fd5b506102de610eef565b34801561044b57600080fd5b5061025c61045a3660046130bf565b610f0c565b34801561046b57600080fd5b5061025c61047a3660046130fb565b610f6c565b34801561048b57600080fd5b50610227610feb565b3480156104a057600080fd5b5061025c6104af366004613137565b611000565b3480156104c057600080fd5b506102a06104cf366004612ea5565b611205565b3480156104e057600080fd5b506102de6104ef3660046131e8565b611210565b34801561050057600080fd5b5061025c61050f366004612ea5565b6112ec565b34801561052057600080fd5b506102de61052f3660046131e8565b61135c565b34801561054057600080fd5b506102de6000805160206136de83398151915281565b34801561056257600080fd5b5061025c6113b4565b34801561057757600080fd5b506105806113d4565b6040516102339796959493929190613203565b34801561059f57600080fd5b506102276105ae366004612f73565b61147d565b3480156105bf57600080fd5b506102736114b3565b3480156105d457600080fd5b506102de60008051602061369e83398151915281565b3480156105f657600080fd5b506102de600081565b34801561060b57600080fd5b5061025c61061a36600461329c565b6114d0565b34801561062b57600080fd5b50610273604051806040016040528060058152602001640352e302e360dc1b81525081565b34801561065c57600080fd5b5061025c61066b366004612ea5565b6114db565b34801561067c57600080fd5b5061025c61068b3660046132d8565b611534565b34801561069c57600080fd5b506102736106ab366004612ea5565b61154c565b3480156106bc57600080fd5b506102276106cb366004612ed2565b6001600160a01b03919091166000908152600360209081526040808320938352929052205460ff1690565b34801561070257600080fd5b506102de6000805160206136be83398151915281565b34801561072457600080fd5b5061025c610733366004612f73565b611561565b34801561074457600080fd5b506102de60015481565b34801561075a57600080fd5b5061076e610769366004613085565b61157d565b604080516001600160a01b039093168352901515602083015201610233565b34801561079957600080fd5b506102276107a836600461333f565b61160d565b3480156107b957600080fd5b506102de61164c565b60006107cd8261165b565b92915050565b6000805160206136de8339815191526107eb81611680565b6001600160a01b03831661081257604051630e52390960e41b815260040160405180910390fd5b61081c838361168a565b826001600160a01b03166000805160206136fe833981519152836040516108439190613369565b60405180910390a2505050565b6060600061085c611738565b905080600001805461086d9061337d565b80601f01602080910402602001604051908101604052809291908181526020018280546108999061337d565b80156108e65780601f106108bb576101008083540402835291602001916108e6565b820191906000526020600020905b8154815290600101906020018083116108c957829003601f168201915b505050505091505090565b60006108fc8261175c565b506107cd82611794565b6109118282336117bd565b5050565b6001600160a01b038216610948576000604051633250574960e11b815260040161093f9190612ebe565b60405180910390fd5b60006109558383336117ca565b9050836001600160a01b0316816001600160a01b0316146109a3576040516364283d7b60e01b81526001600160a01b038086166004830152602482018490528216604482015260640161093f565b50505050565b6000806109b46117e9565b60009384526020525050604090206001015490565b60008060006109d661180d565b600086815260018201602052604090208054919250906001600160a01b03811690600160a01b90046001600160601b031681610a2c57505081546001600160a01b03811690600160a01b90046001600160601b03165b6000612710610a446001600160601b0384168a6133c7565b610a4e91906133de565b929650919450505050505b9250929050565b610a69826109a9565b610a7281611680565b6109a38383611831565b6001600160a01b0381163314610aa55760405163334bd91960e11b815260040160405180910390fd5b610aaf82826118d2565b505050565b6000805160206136de833981519152610acc81611680565b610ad461194a565b476000819003610af757604051630e52390960e41b815260040160405180910390fd5b604051600090339083908381818185875af1925050503d8060008114610b39576040519150601f19603f3d011682016040523d82523d6000602084013e610b3e565b606091505b5050905080610b6057604051630e52390960e41b815260040160405180910390fd5b5050610b6a611980565b50565b6000805160206136de833981519152610b8581611680565b610b6a611991565b610aaf83838360405180602001604052806000815250611534565b6000805160206136be833981519152610bc081611680565b610bc86119e8565b610bd061194a565b6001600160a01b0383161580610be4575081155b15610c0257604051630e52390960e41b815260040160405180910390fd5b60015482600054610c139190613400565b1115610c3257604051638a164f6360e01b815260040160405180910390fd5b60005b82811015610c9e576000805490819080610c4e83613413565b9190505550610c5d8582611a10565b80856001600160a01b031660008051602061365e833981519152610c808461154c565b604051610c8d9190612e92565b60405180910390a350600101610c35565b50610aaf611980565b610caf611a2a565b610cb882611acf565b6109118282611b0e565b6000610ccc6119e8565b610cd461194a565b60a082013515801590610cea57508160a0013542115b15610d0857604051630abfec3f60e11b815260040160405180910390fd5b6000610d1a60808401606085016131e8565b6001600160a01b031614158015610d49575033610d3d60808401606085016131e8565b6001600160a01b031614155b15610d6757604051631218b47f60e21b815260040160405180910390fd5b8160200135341015610d8c5760405163cd1c886760e01b815260040160405180910390fd5b600154823510610daf57604051638a164f6360e01b815260040160405180910390fd5b6000610dba83611bc2565b9050610dd460008051602061369e8339815191528261147d565b610df157604051638baa579f60e01b815260040160405180910390fd5b6001600160a01b03811660009081526003602090815260408083206080870135845290915290205460ff1615610e3957604051623f613760e71b815260040160405180910390fd5b610e438335611c48565b15610e605760405162a5a1f560e01b815260040160405180910390fd5b6001600160a01b0381166000908152600360209081526040808320608087013584529091529020805460ff19166001179055610e9d338435611a10565b604080513481526080850135602082015284359133917f9e992a1e4c5437181f8382c27037b8d47f1046edaee18d6c741b0080e73f2dab910160405180910390a350508035610eea611980565b919050565b6000610ef9611c65565b5060008051602061367e83398151915290565b6000805160206136de833981519152610f2481611680565b6002610f308382613474565b507f6741b2fc379fad678116fe3d4d4b9a1a184ab53ba36b86ad0fa66340b1ab41ad82604051610f609190612e92565b60405180910390a15050565b6000805160206136de833981519152610f8481611680565b6001600160a01b038316610fab57604051630e52390960e41b815260040160405180910390fd5b610fb6848484611cae565b826001600160a01b03166000805160206136fe83398151915283604051610fdd9190613369565b60405180910390a250505050565b600080610ff6611d7e565b5460ff1692915050565b600061100a611da2565b805490915060ff600160401b82041615906001600160401b03166000811580156110315750825b90506000826001600160401b0316600114801561104d5750303b155b90508115801561105b575080155b156110795760405163f92ee8a960e01b815260040160405180910390fd5b84546001600160401b031916600117855583156110a257845460ff60401b1916600160401b1785555b876000036110c357604051630e52390960e41b815260040160405180910390fd5b6001600160a01b0387166110ea57604051630e52390960e41b815260040160405180910390fd5b6110f48b8b611dcb565b6110fc611ddd565b611104611ddd565b61110c611ddd565b611114611de5565b61111c611ddd565b61113f8b604051806040016040528060018152602001603160f81b815250611df5565b600261114b8a82613474565b50600188905561115c600033611831565b506111756000805160206136de83398151915233611831565b5061118e6000805160206136be83398151915233611831565b506111a760008051602061369e83398151915233611831565b506111b2878761168a565b83156111f857845460ff60401b19168555604051600181527fc7f505b2f371ae2175ee4913f4499e1f2633a7b5936321eed1cdaeb6115181d29060200160405180910390a15b5050505050505050505050565b60006107cd8261175c565b60006000805160206136be83398151915261122a81611680565b6112326119e8565b61123a61194a565b6001600160a01b03831661126157604051630e52390960e41b815260040160405180910390fd5b600054600154811061128657604051638a164f6360e01b815260040160405180910390fd5b60008054908061129583613413565b91905055506112a48482611a10565b80846001600160a01b031660008051602061365e8339815191526112c78461154c565b6040516112d49190612e92565b60405180910390a391506112e6611980565b50919050565b6000805160206136de83398151915261130481611680565b60005482101561132757604051630e52390960e41b815260040160405180910390fd5b60018290556040518281527f7810bd47de260c3e9ee10061cf438099dd12256c79485f12f94dbccc981e806c90602001610f60565b600080611367611738565b90506001600160a01b0383166113935760006040516322718ad960e21b815260040161093f9190612ebe565b6001600160a01b039092166000908152600390920160205250604090205490565b6000805160206136de8339815191526113cc81611680565b610b6a611e07565b60006060806000806000606060006113ea611e4e565b80549091501580156113fe57506001810154155b6114425760405162461bcd60e51b81526020600482015260156024820152741152540dcc4c8e88155b9a5b9a5d1a585b1a5e9959605a1b604482015260640161093f565b61144a611e72565b611452611e8f565b60408051600080825260208201909252600f60f81b9c939b5091995046985030975095509350915050565b6000806114886117e9565b6000948552602090815260408086206001600160a01b03959095168652939052505090205460ff1690565b606060006114bf611738565b905080600101805461086d9061337d565b610911338383611eac565b336000818152600360209081526040808320858452825291829020805460ff1916600117905590518381527f1800cd2301fbc20790ed94f3d55a28ef2306a9c31cd3c72b5b71b6e4cf5c6241910160405180910390a250565b61153f848484610915565b6109a33385858585611f51565b60606115578261175c565b506107cd8261206a565b61156a826109a9565b61157381611680565b6109a383836118d2565b60008061158983611bc2565b91506115a360008051602061369e8339815191528361147d565b80156115d757506001600160a01b03821660009081526003602090815260408083206080870135845290915290205460ff16155b80156115f3575060a083013515806115f357508260a001354211155b801561160657506116048335611c48565b155b9050915091565b600080611618611738565b6001600160a01b03948516600090815260059190910160209081526040808320959096168252939093525050205460ff1690565b60006116566120d1565b905090565b60006001600160e01b03198216637965db0b60e01b14806107cd57506107cd826120db565b610b6a8133612100565b600061169461180d565b90506127106001600160601b0383168110156116d557604051636f483d0960e01b81526001600160601b03841660048201526024810182905260440161093f565b6001600160a01b0384166116ff576000604051635b6cc80560e11b815260040161093f9190612ebe565b50604080518082019091526001600160a01b039093168084526001600160601b039092166020909301839052600160a01b909202179055565b7f80bb2b638cc20bc4d0a60d66940f3ab4a00c1d7b313497ca82fb0b4ab007930090565b6000806117688361212b565b90506001600160a01b0381166107cd57604051637e27328960e01b81526004810184905260240161093f565b60008061179f611738565b6000938452600401602052505060409020546001600160a01b031690565b610aaf8383836001612154565b60006117d46119e8565b6117df84848461225e565b90505b9392505050565b7f02dd7bc7dec4dceedda775e58dd541e08a116c6c53815c0bd028192f7b62680090565b7fdaedc9ab023613a7caf35e703657e986ccfad7e3eb0af93a2853f8d65dd86b0090565b60008061183c6117e9565b9050611848848461147d565b6118c8576000848152602082815260408083206001600160a01b03871684529091529020805460ff1916600117905561187e3390565b6001600160a01b0316836001600160a01b0316857f2f8788117e7eff1d82e926ec794901d17c78024a50270940304540a733656f0d60405160405180910390a460019150506107cd565b60009150506107cd565b6000806118dd6117e9565b90506118e9848461147d565b156118c8576000848152602082815260408083206001600160a01b0387168085529252808320805460ff1916905551339287917ff6391f5c32d9c69d2a47ea670b442974b53935d1edc7fd64eb21e047a839171b9190a460019150506107cd565b6000611954612365565b80549091506001190161197a57604051633ee5aeb560e01b815260040160405180910390fd5b60029055565b600061198a612365565b6001905550565b611999612389565b60006119a3611d7e565b805460ff1916815590507f5db9ee0a495bf2e6ff9c91a7834c1ba4fdd244a5e8aa4e537bd38aeae4b073aa335b6040516119dd9190612ebe565b60405180910390a150565b6119f0610feb565b15611a0e5760405163d93c066560e01b815260040160405180910390fd5b565b6109118282604051806020016040528060008152506123ae565b306001600160a01b037f0000000000000000000000000000000000000000000000000000000000000000161480611ab157507f00000000000000000000000000000000000000000000000000000000000000006001600160a01b0316611aa560008051602061367e833981519152546001600160a01b031690565b6001600160a01b031614155b15611a0e5760405163703e46dd60e11b815260040160405180910390fd5b6000805160206136de833981519152611ae781611680565b6001600160a01b03821661091157604051630e985e9560e21b815260040160405180910390fd5b816001600160a01b03166352d1902d6040518163ffffffff1660e01b8152600401602060405180830381865afa925050508015611b68575060408051601f3d908101601f19168201909252611b6591810190613533565b60015b611b875781604051634c9c8ce360e01b815260040161093f9190612ebe565b60008051602061367e8339815191528114611bb857604051632a87526960e21b81526004810182905260240161093f565b610aaf83836123c6565b600080611bce8361241c565b90506000611c1f611be260c086018661354c565b8080601f01602080910402602001604051908101604052809392919081815260200183838082843760009201919091525086939250506124e49050565b90506001600160a01b0381166117e257604051638baa579f60e01b815260040160405180910390fd5b600080611c548361212b565b6001600160a01b0316141592915050565b306001600160a01b037f00000000000000000000000000000000000000000000000000000000000000001614611a0e5760405163703e46dd60e11b815260040160405180910390fd5b6000611cb861180d565b90506127106001600160601b038316811015611d005760405163dfd1fc1b60e01b8152600481018690526001600160601b03841660248201526044810182905260640161093f565b6001600160a01b038416611d3157604051634b4f842960e11b8152600481018690526000602482015260440161093f565b506040805180820182526001600160a01b0394851681526001600160601b03938416602080830191825260009788526001909401909352942093519051909116600160a01b029116179055565b7fcd5ed15c6e187e77e9aee88184c21f4f2182ab5827cb3b7e07fbedcd63f0330090565b6000807ff0c57e16840df040f15088dc2f81fe391c3923bec73e23a9662efc9c229c6a006107cd565b611dd361250e565b6109118282612533565b611a0e61250e565b611ded61250e565b611a0e612561565b611dfd61250e565b6109118282612569565b611e0f6119e8565b6000611e19611d7e565b805460ff1916600117815590507f62e78cea01bee320cd4e420270b5ea74000d11b0c9f74754ebdbfc544b05a2586119d03390565b7fa16a46d94261c7517cc8ff89f61c0ce93598e3c849801011dee649a6a557d10090565b60606000611e7e611e4e565b905080600201805461086d9061337d565b60606000611e9b611e4e565b905080600301805461086d9061337d565b6000611eb6611738565b90506001600160a01b038316611ee15782604051630b61174360e31b815260040161093f9190612ebe565b6001600160a01b038481166000818152600584016020908152604080832094881680845294825291829020805460ff191687151590811790915591519182527f17307eab39ab6107e8899845ad3d59bd9653f200f220920489ca2b5937696c31910160405180910390a350505050565b6001600160a01b0383163b1561206357604051630a85bd0160e11b81526001600160a01b0384169063150b7a0290611f93908890889087908790600401613592565b6020604051808303816000875af1925050508015611fce575060408051601f3d908101601f19168201909252611fcb918101906135cf565b60015b61202e573d808015611ffc576040519150601f19603f3d011682016040523d82523d6000602084013e612001565b606091505b5080516000036120265783604051633250574960e11b815260040161093f9190612ebe565b805160208201fd5b6001600160e01b03198116630a85bd0160e11b146120615783604051633250574960e11b815260040161093f9190612ebe565b505b5050505050565b60606120758261175c565b5060006120806125aa565b905060008151116120a057604051806020016040528060008152506117e2565b806120aa8461263c565b6040516020016120bb9291906135ec565b6040516020818303038152906040529392505050565b60006116566126ce565b60006001600160e01b0319821663152a902d60e11b14806107cd57506107cd82612742565b61210a828261147d565b61091157808260405163e2517d3f60e01b815260040161093f929190612f5a565b600080612136611738565b6000938452600201602052505060409020546001600160a01b031690565b600061215e611738565b9050818061217457506001600160a01b03831615155b1561222d5760006121848561175c565b90506001600160a01b038416158015906121b05750836001600160a01b0316816001600160a01b031614155b80156121c357506121c1818561160d565b155b156121e3578360405163a9fbf51f60e01b815260040161093f9190612ebe565b821561222b5784866001600160a01b0316826001600160a01b03167f8c5be1e5ebec7d5bd14f71427d1e84f3dd0314c0f7b2291e5b200ac8c7c3b92560405160405180910390a45b505b600093845260040160205250506040902080546001600160a01b0319166001600160a01b0392909216919091179055565b600080612269611738565b905060006122768561212b565b90506001600160a01b0384161561229257612292818587612792565b6001600160a01b038116156122d2576122af600086600080612154565b6001600160a01b0381166000908152600383016020526040902080546000190190555b6001600160a01b03861615612303576001600160a01b03861660009081526003830160205260409020805460010190555b600085815260028301602052604080822080546001600160a01b0319166001600160a01b038a811691821790925591518893918516917fddf252ad1be2c89b69c2b068fc378daa952ba7f163c4a11628f55a4df523b3ef91a495945050505050565b7f9b779b17422d0df92223018b32b4d1fa46e071723d6817e2486d003becc55f0090565b612391610feb565b611a0e57604051638dfc202b60e01b815260040160405180910390fd5b6123b883836127e8565b610aaf336000858585611f51565b6123cf8261284d565b6040516001600160a01b038316907fbc7cd75a20ee27fd9adebab32041f755214dbc6bffa90cc0225b39da2e5c2d3b90600090a280511561241457610aaf82826128a9565b61091161291f565b60006107cd7fdfd0327e5c391b20d2c99e1e5981c61e22e227fa553ceb1922356e3e6f69c35c83356020850135612456604087018761354c565b60405161246492919061361b565b60405190819003902061247d60808801606089016131e8565b60408051602081019690965285019390935260608401919091526080838101919091526001600160a01b0390911660a0838101919091529085013560c083015284013560e0820152610100016040516020818303038152906040528051906020012061293e565b6000806000806124f4868661296b565b92509250925061250482826129b8565b5090949350505050565b612516612a71565b611a0e57604051631afcd79f60e31b815260040160405180910390fd5b61253b61250e565b6000612545611738565b9050806125528482613474565b50600181016109a38382613474565b61198061250e565b61257161250e565b600061257b611e4e565b90506002810161258b8482613474565b506003810161259a8382613474565b5060008082556001909101555050565b6060600280546125b99061337d565b80601f01602080910402602001604051908101604052809291908181526020018280546125e59061337d565b80156126325780601f1061260757610100808354040283529160200191612632565b820191906000526020600020905b81548152906001019060200180831161261557829003601f168201915b5050505050905090565b6060600061264983612a8b565b60010190506000816001600160401b0381111561266857612668612f96565b6040519080825280601f01601f191660200182016040528015612692576020820181803683370190505b5090508181016020015b600019016f181899199a1a9b1b9c1cb0b131b232b360811b600a86061a8153600a850494508461269c57509392505050565b60007f8b73c3c69bb8fe3d512ecc4cf759cc79239f7b179b0ffacaa9a75d522b39400f6126f9612b61565b612701612bc8565b60408051602081019490945283019190915260608201524660808201523060a082015260c00160405160208183030381529060405280519060200120905090565b60006001600160e01b031982166380ac58cd60e01b148061277357506001600160e01b03198216635b5e139f60e01b145b806107cd57506301ffc9a760e01b6001600160e01b03198316146107cd565b61279d838383612c09565b610aaf576001600160a01b0383166127cb57604051637e27328960e01b81526004810182905260240161093f565b818160405163177e802f60e01b815260040161093f929190612f5a565b6001600160a01b038216612812576000604051633250574960e11b815260040161093f9190612ebe565b6000612820838360006117ca565b90506001600160a01b03811615610aaf5760006040516339e3563760e11b815260040161093f9190612ebe565b806001600160a01b03163b60000361287a5780604051634c9c8ce360e01b815260040161093f9190612ebe565b60008051602061367e83398151915280546001600160a01b0319166001600160a01b0392909216919091179055565b6060600080846001600160a01b0316846040516128c6919061362b565b600060405180830381855af49150503d8060008114612901576040519150601f19603f3d011682016040523d82523d6000602084013e612906565b606091505b5091509150612916858383612c6e565b95945050505050565b3415611a0e5760405163b398979f60e01b815260040160405180910390fd5b60006107cd61294b6120d1565b8360405161190160f01b8152600281019290925260228201526042902090565b600080600083516041036129a55760208401516040850151606086015160001a61299788828585612cc1565b9550955095505050506129b1565b50508151600091506002905b9250925092565b60008260038111156129cc576129cc613647565b036129d5575050565b60018260038111156129e9576129e9613647565b03612a075760405163f645eedf60e01b815260040160405180910390fd5b6002826003811115612a1b57612a1b613647565b03612a3c5760405163fce698f760e01b81526004810182905260240161093f565b6003826003811115612a5057612a50613647565b03610911576040516335e2f38360e21b81526004810182905260240161093f565b6000612a7b611da2565b54600160401b900460ff16919050565b60008072184f03e93ff9f4daa797ed6e38ed64bf6a1f0160401b8310612aca5772184f03e93ff9f4daa797ed6e38ed64bf6a1f0160401b830492506040015b6904ee2d6d415b85acef8160201b8310612af4576904ee2d6d415b85acef8160201b830492506020015b662386f26fc100008310612b1257662386f26fc10000830492506010015b6305f5e1008310612b2a576305f5e100830492506008015b6127108310612b3e57612710830492506004015b60648310612b50576064830492506002015b600a83106107cd5760010192915050565b600080612b6c611e4e565b90506000612b78611e72565b805190915015612b9057805160209091012092915050565b81548015612b9f579392505050565b7fc5d2460186f7233c927e7db2dcc703c0e500b653ca82273b7bfad8045d85a470935050505090565b600080612bd3611e4e565b90506000612bdf611e8f565b805190915015612bf757805160209091012092915050565b60018201548015612b9f579392505050565b60006001600160a01b038316158015906117df5750826001600160a01b0316846001600160a01b03161480612c435750612c43848461160d565b806117df5750826001600160a01b0316612c5c83611794565b6001600160a01b031614949350505050565b606082612c8357612c7e82612d86565b6117e2565b8151158015612c9a57506001600160a01b0384163b155b15612cba5783604051639996b31560e01b815260040161093f9190612ebe565b50806117e2565b600080806fa2a8918ca85bafe22016d0b997e4df60600160ff1b03841115612cf25750600091506003905082612d7c565b604080516000808252602082018084528a905260ff891692820192909252606081018790526080810186905260019060a0016020604051602081039080840390855afa158015612d46573d6000803e3d6000fd5b5050604051601f1901519150506001600160a01b038116612d7257506000925060019150829050612d7c565b9250600091508190505b9450945094915050565b805115612d9557805160208201fd5b60405163d6bda27560e01b815260040160405180910390fd5b6001600160e01b031981168114610b6a57600080fd5b600060208284031215612dd657600080fd5b81356117e281612dae565b80356001600160a01b0381168114610eea57600080fd5b80356001600160601b0381168114610eea57600080fd5b60008060408385031215612e2257600080fd5b612e2b83612de1565b9150612e3960208401612df8565b90509250929050565b60005b83811015612e5d578181015183820152602001612e45565b50506000910152565b60008151808452612e7e816020860160208601612e42565b601f01601f19169290920160200192915050565b6020815260006117e26020830184612e66565b600060208284031215612eb757600080fd5b5035919050565b6001600160a01b0391909116815260200190565b60008060408385031215612ee557600080fd5b612eee83612de1565b946020939093013593505050565b600080600060608486031215612f1157600080fd5b612f1a84612de1565b9250612f2860208501612de1565b9150604084013590509250925092565b60008060408385031215612f4b57600080fd5b50508035926020909101359150565b6001600160a01b03929092168252602082015260400190565b60008060408385031215612f8657600080fd5b82359150612e3960208401612de1565b634e487b7160e01b600052604160045260246000fd5b600082601f830112612fbd57600080fd5b81356001600160401b0380821115612fd757612fd7612f96565b604051601f8301601f19908116603f01168101908282118183101715612fff57612fff612f96565b8160405283815286602085880101111561301857600080fd5b836020870160208301376000602085830101528094505050505092915050565b6000806040838503121561304b57600080fd5b61305483612de1565b915060208301356001600160401b0381111561306f57600080fd5b61307b85828601612fac565b9150509250929050565b60006020828403121561309757600080fd5b81356001600160401b038111156130ad57600080fd5b820160e081850312156117e257600080fd5b6000602082840312156130d157600080fd5b81356001600160401b038111156130e757600080fd5b6130f384828501612fac565b949350505050565b60008060006060848603121561311057600080fd5b8335925061312060208501612de1565b915061312e60408501612df8565b90509250925092565b60008060008060008060c0878903121561315057600080fd5b86356001600160401b038082111561316757600080fd5b6131738a838b01612fac565b9750602089013591508082111561318957600080fd5b6131958a838b01612fac565b965060408901359150808211156131ab57600080fd5b506131b889828a01612fac565b945050606087013592506131ce60808801612de1565b91506131dc60a08801612df8565b90509295509295509295565b6000602082840312156131fa57600080fd5b6117e282612de1565b60ff60f81b881681526000602060e0602084015261322460e084018a612e66565b8381036040850152613236818a612e66565b606085018990526001600160a01b038816608086015260a0850187905284810360c08601528551808252602080880193509091019060005b8181101561328a5783518352928401929184019160010161326e565b50909c9b505050505050505050505050565b600080604083850312156132af57600080fd5b6132b883612de1565b9150602083013580151581146132cd57600080fd5b809150509250929050565b600080600080608085870312156132ee57600080fd5b6132f785612de1565b935061330560208601612de1565b92506040850135915060608501356001600160401b0381111561332757600080fd5b61333387828801612fac565b91505092959194509250565b6000806040838503121561335257600080fd5b61335b83612de1565b9150612e3960208401612de1565b6001600160601b0391909116815260200190565b600181811c9082168061339157607f821691505b6020821081036112e657634e487b7160e01b600052602260045260246000fd5b634e487b7160e01b600052601160045260246000fd5b80820281158282048414176107cd576107cd6133b1565b6000826133fb57634e487b7160e01b600052601260045260246000fd5b500490565b808201808211156107cd576107cd6133b1565b600060018201613425576134256133b1565b5060010190565b601f821115610aaf576000816000526020600020601f850160051c810160208610156134555750805b601f850160051c820191505b8181101561206157828155600101613461565b81516001600160401b0381111561348d5761348d612f96565b6134a18161349b845461337d565b8461342c565b602080601f8311600181146134d657600084156134be5750858301515b600019600386901b1c1916600185901b178555612061565b600085815260208120601f198616915b82811015613505578886015182559484019460019091019084016134e6565b50858210156135235787850151600019600388901b60f8161c191681555b5050505050600190811b01905550565b60006020828403121561354557600080fd5b5051919050565b6000808335601e1984360301811261356357600080fd5b8301803591506001600160401b0382111561357d57600080fd5b602001915036819003821315610a5957600080fd5b6001600160a01b03858116825284166020820152604081018390526080606082018190526000906135c590830184612e66565b9695505050505050565b6000602082840312156135e157600080fd5b81516117e281612dae565b600083516135fe818460208801612e42565b835190830190613612818360208801612e42565b01949350505050565b8183823760009101908152919050565b6000825161363d818460208701612e42565b9190910192915050565b634e487b7160e01b600052602160045260246000fdfedf92894dc4675a7333caa5903b69cf5d8e8ec0d3f361c88207b6688e525703bb360894a13ba1a3210667c828492db98dca3e2076cc3735a920a3ca505d382bbce2f4eaae4a9751e85a3e4a7b9587827a877f29914755229b07a7b2da98285f709f2df0fed2c77648de5860a4cc508cd0818c85b8b8a1ab4ceeef8d981c8956a6a49807205ce4d355092ef5a8a18f56e8913cf4a201fbe287825b095693c21775ae1d656a1268648b04ffa79c1416f05879338ae295aae3234d8db217356a1c62a26469706673582212202ec9666341a529ae31f59a171e5c4f994f672869b9a04a738c3a5ffa455f2b9164736f6c63430008160033",
  "linkReferences": {},
  "deployedLinkReferences": {}
}